{
  "contractName": "buyable",
  "abi": [
    {
      "constant": false,
      "inputs": [
        {
          "name": "_tokenId",
          "type": "uint256"
        },
        {
          "name": "new_uri",
          "type": "string"
        }
      ],
      "name": "updatetoken",
      "outputs": [],
      "payable": false,
      "stateMutability": "nonpayable",
      "type": "function"
    },
    {
      "constant": true,
      "inputs": [
        {
          "name": "_tokenId",
          "type": "uint256"
        }
      ],
      "name": "getApproved",
      "outputs": [
        {
          "name": "",
          "type": "address"
        }
      ],
      "payable": false,
      "stateMutability": "view",
      "type": "function"
    },
    {
      "constant": false,
      "inputs": [
        {
          "name": "_to",
          "type": "address"
        },
        {
          "name": "_tokenId",
          "type": "uint256"
        }
      ],
      "name": "approve",
      "outputs": [],
      "payable": false,
      "stateMutability": "nonpayable",
      "type": "function"
    },
    {
      "constant": false,
      "inputs": [
        {
          "name": "_freeze",
          "type": "bool"
        }
      ],
      "name": "freeze_pool",
      "outputs": [],
      "payable": false,
      "stateMutability": "nonpayable",
      "type": "function"
    },
    {
      "constant": false,
      "inputs": [
        {
          "name": "_from",
          "type": "address"
        },
        {
          "name": "_to",
          "type": "address"
        },
        {
          "name": "_tokenId",
          "type": "uint256"
        }
      ],
      "name": "transferFrom",
      "outputs": [],
      "payable": false,
      "stateMutability": "nonpayable",
      "type": "function"
    },
    {
      "constant": true,
      "inputs": [],
      "name": "totalShares",
      "outputs": [
        {
          "name": "",
          "type": "uint256"
        }
      ],
      "payable": false,
      "stateMutability": "view",
      "type": "function"
    },
    {
      "constant": true,
      "inputs": [
        {
          "name": "_spender",
          "type": "address"
        },
        {
          "name": "_tokenId",
          "type": "uint256"
        }
      ],
      "name": "isApprovedOrOwner",
      "outputs": [
        {
          "name": "",
          "type": "bool"
        }
      ],
      "payable": false,
      "stateMutability": "view",
      "type": "function"
    },
    {
      "constant": true,
      "inputs": [
        {
          "name": "entity",
          "type": "address"
        }
      ],
      "name": "getRole",
      "outputs": [
        {
          "name": "",
          "type": "uint8"
        }
      ],
      "payable": false,
      "stateMutability": "view",
      "type": "function"
    },
    {
      "constant": false,
      "inputs": [
        {
          "name": "_to",
          "type": "address"
        },
        {
          "name": "_tokenId",
          "type": "uint256"
        }
      ],
      "name": "_mint",
      "outputs": [],
      "payable": false,
      "stateMutability": "nonpayable",
      "type": "function"
    },
    {
      "constant": false,
      "inputs": [],
      "name": "claim",
      "outputs": [],
      "payable": false,
      "stateMutability": "nonpayable",
      "type": "function"
    },
    {
      "constant": true,
      "inputs": [
        {
          "name": "_tokenId",
          "type": "uint256"
        }
      ],
      "name": "exists",
      "outputs": [
        {
          "name": "",
          "type": "bool"
        }
      ],
      "payable": false,
      "stateMutability": "view",
      "type": "function"
    },
    {
      "constant": false,
      "inputs": [
        {
          "name": "_owner",
          "type": "address"
        },
        {
          "name": "_tokenId",
          "type": "uint256"
        }
      ],
      "name": "_burn",
      "outputs": [],
      "payable": false,
      "stateMutability": "nonpayable",
      "type": "function"
    },
    {
      "constant": true,
      "inputs": [],
      "name": "freeze",
      "outputs": [
        {
          "name": "",
          "type": "bool"
        }
      ],
      "payable": false,
      "stateMutability": "view",
      "type": "function"
    },
    {
      "constant": true,
      "inputs": [
        {
          "name": "_tokenId",
          "type": "uint256"
        }
      ],
      "name": "ownerOf",
      "outputs": [
        {
          "name": "",
          "type": "address"
        }
      ],
      "payable": false,
      "stateMutability": "view",
      "type": "function"
    },
    {
      "constant": true,
      "inputs": [
        {
          "name": "_owner",
          "type": "address"
        }
      ],
      "name": "balanceOf",
      "outputs": [
        {
          "name": "",
          "type": "uint256"
        }
      ],
      "payable": false,
      "stateMutability": "view",
      "type": "function"
    },
    {
      "constant": false,
      "inputs": [
        {
          "name": "_to",
          "type": "address"
        },
        {
          "name": "_approved",
          "type": "bool"
        }
      ],
      "name": "setApprovalForAll",
      "outputs": [],
      "payable": false,
      "stateMutability": "nonpayable",
      "type": "function"
    },
    {
      "constant": true,
      "inputs": [],
      "name": "numTokensTotal",
      "outputs": [
        {
          "name": "",
          "type": "uint256"
        }
      ],
      "payable": false,
      "stateMutability": "view",
      "type": "function"
    },
    {
      "constant": true,
      "inputs": [
        {
          "name": "",
          "type": "address"
        }
      ],
      "name": "shares",
      "outputs": [
        {
          "name": "",
          "type": "uint256"
        }
      ],
      "payable": false,
      "stateMutability": "view",
      "type": "function"
    },
    {
      "constant": true,
      "inputs": [],
      "name": "totalReleased",
      "outputs": [
        {
          "name": "",
          "type": "uint256"
        }
      ],
      "payable": false,
      "stateMutability": "view",
      "type": "function"
    },
    {
      "constant": true,
      "inputs": [
        {
          "name": "_owner",
          "type": "address"
        },
        {
          "name": "_operator",
          "type": "address"
        }
      ],
      "name": "isApprovedForAll",
      "outputs": [
        {
          "name": "",
          "type": "bool"
        }
      ],
      "payable": false,
      "stateMutability": "view",
      "type": "function"
    },
    {
      "constant": false,
      "inputs": [
        {
          "name": "amount",
          "type": "uint256"
        }
      ],
      "name": "emergency_withdraw",
      "outputs": [],
      "payable": false,
      "stateMutability": "nonpayable",
      "type": "function"
    },
    {
      "constant": false,
      "inputs": [
        {
          "name": "rolevalue",
          "type": "uint8"
        },
        {
          "name": "entity",
          "type": "address"
        }
      ],
      "name": "setRole",
      "outputs": [],
      "payable": false,
      "stateMutability": "nonpayable",
      "type": "function"
    },
    {
      "constant": false,
      "inputs": [
        {
          "name": "unique_id",
          "type": "uint256"
        }
      ],
      "name": "oracle_call",
      "outputs": [],
      "payable": false,
      "stateMutability": "nonpayable",
      "type": "function"
    },
    {
      "constant": false,
      "inputs": [
        {
          "name": "_to",
          "type": "address"
        },
        {
          "name": "_tokenId",
          "type": "uint256"
        },
        {
          "name": "new_uri",
          "type": "string"
        }
      ],
      "name": "_mint_with_uri",
      "outputs": [],
      "payable": false,
      "stateMutability": "nonpayable",
      "type": "function"
    },
    {
      "constant": true,
      "inputs": [],
      "name": "get_shares",
      "outputs": [
        {
          "name": "individual_shares",
          "type": "uint256"
        }
      ],
      "payable": false,
      "stateMutability": "view",
      "type": "function"
    },
    {
      "inputs": [],
      "payable": false,
      "stateMutability": "nonpayable",
      "type": "constructor"
    },
    {
      "payable": true,
      "stateMutability": "payable",
      "type": "fallback"
    },
    {
      "anonymous": false,
      "inputs": [
        {
          "indexed": false,
          "name": "tokenId",
          "type": "uint256"
        },
        {
          "indexed": false,
          "name": "Price",
          "type": "uint256"
        }
      ],
      "name": "Set_price_and_sell",
      "type": "event"
    },
    {
      "anonymous": false,
      "inputs": [
        {
          "indexed": false,
          "name": "tokenId",
          "type": "uint256"
        }
      ],
      "name": "Stop_sell",
      "type": "event"
    },
    {
      "anonymous": false,
      "inputs": [
        {
          "indexed": false,
          "name": "_tokenId",
          "type": "uint256"
        },
        {
          "indexed": false,
          "name": "new_uri",
          "type": "string"
        }
      ],
      "name": "UpdateToken",
      "type": "event"
    },
    {
      "anonymous": false,
      "inputs": [
        {
          "indexed": true,
          "name": "_from",
          "type": "address"
        },
        {
          "indexed": true,
          "name": "_to",
          "type": "address"
        },
        {
          "indexed": false,
          "name": "_tokenId",
          "type": "uint256"
        }
      ],
      "name": "Transfer",
      "type": "event"
    },
    {
      "anonymous": false,
      "inputs": [
        {
          "indexed": true,
          "name": "_owner",
          "type": "address"
        },
        {
          "indexed": true,
          "name": "_approved",
          "type": "address"
        },
        {
          "indexed": false,
          "name": "_tokenId",
          "type": "uint256"
        }
      ],
      "name": "Approval",
      "type": "event"
    },
    {
      "anonymous": false,
      "inputs": [
        {
          "indexed": true,
          "name": "_owner",
          "type": "address"
        },
        {
          "indexed": true,
          "name": "_operator",
          "type": "address"
        },
        {
          "indexed": false,
          "name": "_approved",
          "type": "bool"
        }
      ],
      "name": "ApprovalForAll",
      "type": "event"
    },
    {
      "constant": false,
      "inputs": [
        {
          "name": "_infrastructure_address",
          "type": "address"
        }
      ],
      "name": "initialisation",
      "outputs": [],
      "payable": false,
      "stateMutability": "nonpayable",
      "type": "function"
    },
    {
      "constant": false,
      "inputs": [
        {
          "name": "UniqueID",
          "type": "uint256"
        },
        {
          "name": "Price",
          "type": "uint256"
        }
      ],
      "name": "set_price_and_sell",
      "outputs": [],
      "payable": false,
      "stateMutability": "nonpayable",
      "type": "function"
    },
    {
      "constant": false,
      "inputs": [
        {
          "name": "UniqueID",
          "type": "uint256"
        }
      ],
      "name": "stop_sell",
      "outputs": [],
      "payable": true,
      "stateMutability": "payable",
      "type": "function"
    },
    {
      "constant": false,
      "inputs": [
        {
          "name": "UniqueID",
          "type": "uint256"
        }
      ],
      "name": "buy",
      "outputs": [],
      "payable": true,
      "stateMutability": "payable",
      "type": "function"
    },
    {
      "constant": true,
      "inputs": [
        {
          "name": "_tokenId",
          "type": "uint256"
        }
      ],
      "name": "get_token_data",
      "outputs": [
        {
          "name": "_price",
          "type": "uint256"
        },
        {
          "name": "_setprice",
          "type": "uint256"
        },
        {
          "name": "_buyable",
          "type": "bool"
        }
      ],
      "payable": false,
      "stateMutability": "view",
      "type": "function"
    },
    {
      "constant": true,
      "inputs": [
        {
          "name": "_tokenId",
          "type": "uint256"
        }
      ],
      "name": "get_token_data_buyable",
      "outputs": [
        {
          "name": "_buyable",
          "type": "bool"
        }
      ],
      "payable": false,
      "stateMutability": "view",
      "type": "function"
    },
    {
      "constant": true,
      "inputs": [],
      "name": "get_all_sellable_token",
      "outputs": [
        {
          "name": "list_of_available",
          "type": "bool[101]"
        }
      ],
      "payable": false,
      "stateMutability": "view",
      "type": "function"
    },
    {
      "constant": true,
      "inputs": [],
      "name": "get_my_tokens",
      "outputs": [
        {
          "name": "list_of_my_tokens",
          "type": "bool[101]"
        }
      ],
      "payable": false,
      "stateMutability": "view",
      "type": "function"
    }
  ],
  "bytecode": "0x60806040526000600755600060085534801561001a57600080fd5b5033600090815260208190526040902080546002919060ff191660018302179055506009805460ff191690556116ba806100556000396000f3006080604052600436106101a05763ffffffff7c010000000000000000000000000000000000000000000000000000000060003504166303ad4be381146101a2578063081812fc146101c6578063095ea7b3146101fa57806312be78d11461021e57806323b872dd146102385780633a98ef3914610262578063430c20811461028957806344276733146102c1578063454ca9fd146103065780634e6ec247146103545780634e71d92d146103785780634f558e791461038d578063609a54b0146103a55780636161eb18146103ba57806362a5af3b146103de5780636352211e146103f35780636effb5791461040b57806370a08231146104165780637c968f5d14610437578063a22cb4651461044f578063a726be9a14610475578063af129dc2146104ad578063ce7c2ac2146104c2578063d96a094a146104e3578063e33b7de3146104ee578063e985e9c514610503578063ebd2ca441461052a578063ec46bf8f1461054b578063f2e12a3914610563578063f3f706741461058a578063f4a8a699146105a2578063f7b42d08146105d3578063f8bdc9dd146105ee575b005b3480156101ae57600080fd5b506101a0600480359060248035908101910135610603565b3480156101d257600080fd5b506101de60043561069f565b60408051600160a060020a039092168252519081900360200190f35b34801561020657600080fd5b506101a0600160a060020a03600435166024356106bd565b34801561022a57600080fd5b506101a060043515156107c1565b34801561024457600080fd5b506101a0600160a060020a03600435811690602435166044356107f9565b34801561026e57600080fd5b50610277610896565b60408051918252519081900360200190f35b34801561029557600080fd5b506102ad600160a060020a036004351660243561089c565b604080519115158252519081900360200190f35b3480156102cd57600080fd5b506102e2600160a060020a03600435166108fd565b604051808260028111156102f257fe5b60ff16815260200191505060405180910390f35b34801561031257600080fd5b5061031b61091b565b6040518082610ca080838360005b83811015610341578181015183820152602001610329565b5050505090500191505060405180910390f35b34801561036057600080fd5b506101a0600160a060020a0360043516602435610998565b34801561038457600080fd5b506101a0610a25565b34801561039957600080fd5b506102ad600435610a31565b3480156103b157600080fd5b5061031b610a4e565b3480156103c657600080fd5b506101a0600160a060020a0360043516602435610ac1565b3480156103ea57600080fd5b506102ad610b43565b3480156103ff57600080fd5b506101de600435610b4c565b6101a0600435610b67565b34801561042257600080fd5b50610277600160a060020a0360043516610be2565b34801561044357600080fd5b506102ad600435610c15565b34801561045b57600080fd5b506101a0600160a060020a03600435166024351515610c3a565b34801561048157600080fd5b5061048d600435610cbe565b604080519384526020840192909252151582820152519081900360600190f35b3480156104b957600080fd5b50610277610cfd565b3480156104ce57600080fd5b50610277600160a060020a0360043516610d03565b6101a0600435610d15565b3480156104fa57600080fd5b50610277610f25565b34801561050f57600080fd5b506102ad600160a060020a0360043581169060243516610f2b565b34801561053657600080fd5b506101a0600160a060020a0360043516610f59565b34801561055757600080fd5b506101a0600435610fad565b34801561056f57600080fd5b506101a060ff60043516600160a060020a0360243516611011565b34801561059657600080fd5b506101a060043561107a565b3480156105ae57600080fd5b506101a060048035600160a060020a03169060248035916044359182019101356110ad565b3480156105df57600080fd5b506101a0600435602435611156565b3480156105fa57600080fd5b506102776111b1565b60018061060f336108fd565b600281111561061a57fe5b60ff161461062757600080fd5b60008481526006602052604090206106409084846115ba565b507f53560fd2a0eb35afd8d535363033618f52ccbfc857a7bf616eb195a0ed022ef4848484604051808481526020018060200182810382528484828181526020019250808284376040519201829003965090945050505050a150505050565b600081815260036020526040902054600160a060020a03165b919050565b6000818152600260209081526040808320546003909252909120805473ffffffffffffffffffffffffffffffffffffffff1916600160a060020a03858116919091179091551661070c82610b4c565b600160a060020a038481169116141561072457600080fd5b33600160a060020a038216148061074057506107408133610f2b565b151561074b57600080fd5b600082815260036020908152604091829020805473ffffffffffffffffffffffffffffffffffffffff1916600160a060020a03878116918217909255835186815293519093918516927f8c5be1e5ebec7d5bd14f71427d1e84f3dd0314c0f7b2291e5b200ac8c7c3b925928290030190a3505050565b6002806107cd336108fd565b60028111156107d857fe5b60ff16146107e557600080fd5b506009805460ff1916911515919091179055565b80610804338261089c565b151561080f57600080fd5b600160a060020a038416151561082457600080fd5b600160a060020a038316151561083957600080fd5b61084384836111c5565b61084d8483611272565b6108578383611308565b82600160a060020a031684600160a060020a031660008051602061166f833981519152846040518082815260200191505060405180910390a350505050565b60075481565b6000806108a883610b4c565b905080600160a060020a031684600160a060020a031614806108e3575083600160a060020a03166108d88461069f565b600160a060020a0316145b806108f357506108f38185610f2b565b91505b5092915050565b600160a060020a031660009081526020819052604090205460ff1690565b610923611634565b6000335b606582101561099357600082815260026020526040902054600160a060020a038281169116141561096f57600183836065811061096057fe5b91151560209092020152610988565b600083836065811061097d57fe5b911515602090920201525b600190910190610927565b505090565b6002806109a4336108fd565b60028111156109af57fe5b60ff16146109bc57600080fd5b600160a060020a03831615156109d157600080fd5b6109db8383611308565b600180546109ee9163ffffffff61139916565b600155604080518381529051600160a060020a0385169160009160008051602061166f8339815191529181900360200190a3505050565b610a2e336113af565b50565b600090815260026020526040902054600160a060020a0316151590565b610a56611634565b60005b6065811015610abd57600081815260036020526040902054600160a060020a031615610a9c576001828260658110610a8d57fe5b91151560209092020152610ab5565b6000828260658110610aaa57fe5b911515602090920201525b600101610a59565b5090565b600280610acd336108fd565b6002811115610ad857fe5b60ff1614610ae557600080fd5b610aef83836111c5565b610af98383611272565b60018054610b0c9163ffffffff6114cc16565b600155604080518381529051600091600160a060020a0386169160008051602061166f8339815191529181900360200190a3505050565b60095460ff1681565b600090815260026020526040902054600160a060020a031690565b600081815260026020526040902054600160a060020a03163314610b8a57600080fd5b600081815260026020526040902054610bac90600160a060020a0316826111c5565b6040805182815290517fb7e9f6b2d2458040a4050b0b4a3e57e203d8738815821083545a426fdf73fc9a9181900360200190a150565b6000600160a060020a0382161515610bf957600080fd5b50600160a060020a031660009081526004602052604090205490565b600081815260036020526040812054600160a060020a0316156106b857506001919050565b600160a060020a038216331415610c5057600080fd5b336000818152600560209081526040808320600160a060020a03871680855290835292819020805460ff1916861515908117909155815190815290519293927f17307eab39ab6107e8899845ad3d59bd9653f200f220920489ca2b5937696c31929181900390910190a35050565b6000818152600d6020908152604080832054600c835281842054600390935290832054909290600160a060020a031615610cf6575060015b9193909250565b60015481565b600a6020526000908152604090205481565b6000818152600c60205260408120543391908190819081903414610d3857600080fd5b6000868152600d602052604090203490819055610d5c90601463ffffffff6114de16565b9350610d6f34601463ffffffff6114de16565b9250610d81848463ffffffff61139916565b9150610d93348363ffffffff6114cc16565b600087815260026020526040808220549051929350600160a060020a0316916201869f91849190818181858888f193505050501515610dd157600080fd5b6000868152600260205260408082205481517f23b872dd000000000000000000000000000000000000000000000000000000008152600160a060020a039182166004820152908816602482015260448101899052905130926323b872dd926064808201939182900301818387803b158015610e4b57600080fd5b505af1158015610e5f573d6000803e3d6000fd5b5050600b54604051600160a060020a0390911692506201869f915085906000818181858888f193505050501515610f1d57604080517f08c379a000000000000000000000000000000000000000000000000000000000815260206004820152602560248201527f7472616e7366657220746f20696e667261737472756374757265506f6f6c206660448201527f61696c6564000000000000000000000000000000000000000000000000000000606482015290519081900360840190fd5b505050505050565b60085481565b600160a060020a03918216600090815260056020908152604080832093909416825291909152205460ff1690565b600280610f65336108fd565b6002811115610f7057fe5b60ff1614610f7d57600080fd5b50600b805473ffffffffffffffffffffffffffffffffffffffff1916600160a060020a0392909216919091179055565b600280610fb9336108fd565b6002811115610fc457fe5b60ff1614610fd157600080fd5b3031821115610fdf57600080fd5b604051339083156108fc029084906000818181858888f1935050505015801561100c573d6000803e3d6000fd5b505050565b60028061101d336108fd565b600281111561102857fe5b60ff161461103557600080fd5b8260ff16600281111561104457fe5b600160a060020a0383166000908152602081905260409020805460ff1916600183600281111561107057fe5b0217905550505050565b600180611086336108fd565b600281111561109157fe5b60ff161461109e57600080fd5b6110a96001836114f5565b5050565b6002806110b9336108fd565b60028111156110c457fe5b60ff16146110d157600080fd5b600160a060020a03851615156110e657600080fd5b6110f08585611308565b600180546111039163ffffffff61139916565b600155600084815260066020526040902061111f9084846115ba565b50604080518581529051600160a060020a0387169160009160008051602061166f8339815191529181900360200190a35050505050565b61116030836106bd565b6000828152600c6020908152604091829020839055815184815290810183905281517fec3759d55f609c6666198ab6e098bbe8937fead3e8aa740c199b7ba111064218929181900390910190a15050565b336000908152600a60205260409020545b90565b81600160a060020a03166111d882610b4c565b600160a060020a0316146111eb57600080fd5b600081815260036020526040902054600160a060020a0316156110a9576000818152600360209081526040808320805473ffffffffffffffffffffffffffffffffffffffff1916905580518481529051600160a060020a038616927f8c5be1e5ebec7d5bd14f71427d1e84f3dd0314c0f7b2291e5b200ac8c7c3b925928290030190a35050565b81600160a060020a031661128582610b4c565b600160a060020a03161461129857600080fd5b600160a060020a0382166000908152600460205260409020546112c290600163ffffffff6114cc16565b600160a060020a03909216600090815260046020908152604080832094909455918152600290915220805473ffffffffffffffffffffffffffffffffffffffff19169055565b600081815260026020526040902054600160a060020a03161561132a57600080fd5b6000818152600260209081526040808320805473ffffffffffffffffffffffffffffffffffffffff1916600160a060020a03871690811790915583526004909152902054611379906001611399565b600160a060020a0390921660009081526004602052604090209190915550565b6000828201838110156113a857fe5b9392505050565b60095460009081908190819060ff16156113c857600080fd5b600160a060020a0385166000908152600a6020526040812054869450116113ee57600080fd5b600754600160a060020a0384166000908152600a602052604090205430319350611430919061142490859063ffffffff61156916565b9063ffffffff6114de16565b905080151561143e57600080fd5b303181111561144c57600080fd5b60085461145f908263ffffffff61139916565b600855604051600160a060020a0384169082156108fc029083906000818181858888f19350505050158015611498573d6000803e3d6000fd5b50600160a060020a0383166000908152600a60205260409020546114bb90611594565b6114c4836115a0565b505050919050565b6000828211156114d857fe5b50900390565b60008082848115156114ec57fe5b04949350505050565b600081815260026020908152604080832054600160a060020a03168352600a90915290205461152a908363ffffffff61139916565b600082815260026020908152604080832054600160a060020a03168352600a909152902055600754611562908363ffffffff61139916565b6007555050565b60008083151561157c57600091506108f6565b5082820282848281151561158c57fe5b04146113a857fe5b60078054919091039055565b600160a060020a03166000908152600a6020526040812055565b828054600181600116156101000203166002900490600052602060002090601f016020900481019282601f106115fb5782800160ff19823516178555611628565b82800160010185558215611628579182015b8281111561162857823582559160200191906001019061160d565b50610abd929150611654565b610ca0604051908101604052806065906020820280388339509192915050565b6111c291905b80821115610abd576000815560010161165a5600ddf252ad1be2c89b69c2b068fc378daa952ba7f163c4a11628f55a4df523b3efa165627a7a723058209bbe8d8fc9f51c24d00e1f67f7106bf9279b1a9e5be537c3ec31a7fd48496dcb0029",
  "source": "pragma solidity ^0.4.23;\nimport \"./bloomingPool.sol\";\nimport \"./ERC721BasicToken.sol\";\n\n/**\n* Functions for purchase and selling of Flowertokens, as well as viewing availability of tokens. \n */\n\ncontract buyable is bloomingPool {\n\n    address INFRASTRUCTURE_POOL_ADDRESS;\n    mapping (uint256 => uint256) TokenIdtosetprice;\n    mapping (uint256 => uint256) TokenIdtoprice;\n\n    event Set_price_and_sell(uint256 tokenId, uint256 Price);\n    event Stop_sell(uint256 tokenId);\n\n    constructor() public {}\n\n    /// @dev function to set INFRASTRUCTURE_POOL_ADDRESS global var to address of deployed infrastructurePool contract\n    /// @param _infrastructure_address address of deployed infrastructurePool contract\n    function initialisation(address _infrastructure_address) public check(2){\n        INFRASTRUCTURE_POOL_ADDRESS = _infrastructure_address;\n    }\n\n    /// @dev function to set the price of a Flowertoken and also put it up for sale\n    /// @param UniqueID unique identification number of Flowertoken to be sold\n    /// @param Price price Flowertoken is to be sold for\n    function set_price_and_sell(uint256 UniqueID,uint256 Price) external {\n        approve(address(this), UniqueID);\n        TokenIdtosetprice[UniqueID] = Price;\n        emit Set_price_and_sell(UniqueID, Price);\n    }\n\n    /// @dev function to take Flowertoken which is for sale off the market\n    /// @param UniqueID unique identification number of Flowertoken to be sold\n    function stop_sell(uint256 UniqueID) external payable{\n        require(tokenOwner[UniqueID] == msg.sender);\n        clearApproval(tokenOwner[UniqueID],UniqueID);\n        emit Stop_sell(UniqueID);\n    }\n\n    /// @dev function to purchase Flowertoken\n    /// @param UniqueID unique identification number of Flowertoken to be sold\n    function buy(uint256 UniqueID) external payable {\n        address _to = msg.sender;\n        require(TokenIdtosetprice[UniqueID] == msg.value);\n        TokenIdtoprice[UniqueID] = msg.value;\n        uint _blooming = msg.value.div(20);\n        uint _infrastructure = msg.value.div(20);\n        uint _combined = _blooming.add(_infrastructure);\n        uint _amount_for_seller = msg.value.sub(_combined);\n        require(tokenOwner[UniqueID].call.gas(99999).value(_amount_for_seller)());\n        this.transferFrom(tokenOwner[UniqueID], _to, UniqueID);\n        if(!INFRASTRUCTURE_POOL_ADDRESS.call.gas(99999).value(_infrastructure)()){\n            revert(\"transfer to infrastructurePool failed\");\n\t\t    }\n    }\n\n    /// @dev function which returns the price and availability of specified Flowertoken\n    /// @param _tokenId unique identification number of Flowertoken to be sold\n    /// @return price and availability of specified Flowertoken\n    function get_token_data(uint256 _tokenId) external view returns(uint256 _price, uint256 _setprice, bool _buyable){\n        _price = TokenIdtoprice[_tokenId];\n        _setprice = TokenIdtosetprice[_tokenId];\n        if (tokenApprovals[_tokenId] != address(0)){\n            _buyable = true;\n        }\n    }\n\n    /// @dev function which returns availability of specified Flowertoken\n    /// @param _tokenId unique identification number of Flowertoken to be sold\n    /// @return returns boolean denoting availability of specified Flowertoken\n    function get_token_data_buyable(uint256 _tokenId) external view returns(bool _buyable) {\n        if (tokenApprovals[_tokenId] != address(0)){\n            _buyable = true;\n        }\n    }\n\n    /// @dev function which returns array denoting availability of all Flowertokens\n    /// @return array denoting availability of all Flowertokens\n    function get_all_sellable_token()external view returns(bool[101] list_of_available){\n        uint i;\n        for(i = 0;i<101;i++) {\n            if (tokenApprovals[i] != address(0)){\n                list_of_available[i] = true;\n          }else{\n                list_of_available[i] = false;\n          }\n        }\n    }\n\n    /// @dev function which returns array denoting whether entity calling function is owner of each Flowertoken\n    /// @return array denoting ownership of each Flowertoken\n    function get_my_tokens()external view returns(bool[101] list_of_my_tokens){\n        uint i;\n        address _owner = msg.sender;\n        for(i = 0;i<101;i++) {\n            if (tokenOwner[i] == _owner){\n                list_of_my_tokens[i] = true;\n          }else{\n                list_of_my_tokens[i] = false;\n          }\n        }\n    }\n\n}\n",
  "sourcePath": "/home/mx/dev/terra/source/Flowertokens/contracts/buyable.sol",
  "compiler": {
    "name": "solc",
    "version": "0.4.26+commit.4563c3fc.Emscripten.clang"
  },
  "schemaVersion": "3.4.3",
  "updatedAt": "2021-08-20T14:48:24.438Z",
  "networkType": "ethereum",
  "devdoc": {
    "methods": {
      "_burn(address,uint256)": {
        "details": "Internal function to burn a specific tokenReverts if the token does not exist",
        "params": {
          "_tokenId": "uint256 ID of the token being burned by the msg.sender"
        }
      },
      "_mint(address,uint256)": {
        "details": "Internal function to mint a new tokenReverts if the given token ID already exists_check(2) checks msg.sender == ADMIN",
        "params": {
          "_to": "The address that will own the minted token",
          "_tokenId": "uint256 ID of the token to be minted by the msg.sender"
        }
      },
      "_mint_with_uri(address,uint256,string)": {
        "details": "function to mint Flowertokens with initial uri",
        "params": {
          "_to": "entity given ownership of minted Flowertoken",
          "_tokenId": "unique identification number for specified Flowertoken",
          "new_uri": "new uri linking metadata to specified Flowertoken"
        }
      },
      "approve(address,uint256)": {
        "details": "Approves another address to transfer the given token IDThe zero address indicates there is no approved address.There can only be one approved address per token at a given time.Can only be called by the token owner or an approved operator.",
        "params": {
          "_to": "address to be approved for the given token ID",
          "_tokenId": "uint256 ID of the token to be approved"
        }
      },
      "balanceOf(address)": {
        "details": "Gets the balance of the specified address",
        "params": {
          "_owner": "address to query the balance of"
        },
        "return": "uint256 representing the amount owned by the passed address"
      },
      "buy(uint256)": {
        "details": "function to purchase Flowertoken",
        "params": {
          "UniqueID": "unique identification number of Flowertoken to be sold"
        }
      },
      "claim()": {
        "details": "function called by entity to claim number of shares mapped to address"
      },
      "emergency_withdraw(uint256)": {
        "details": "emergency function to withdraw Eth from contract in case of OpSec failure",
        "params": {
          "amount": "amount of Eth to be transferred to entity calling function"
        }
      },
      "exists(uint256)": {
        "details": "Returns whether the specified token exists",
        "params": {
          "_tokenId": "uint256 ID of the token to query the existence of"
        },
        "return": "whether the token exists"
      },
      "freeze_pool(bool)": {
        "details": "emergency function to freeze withdrawls from Blooming Pool contract",
        "params": {
          "_freeze": "boolean to set global variable allowing / not allowing withdrawls"
        }
      },
      "getApproved(uint256)": {
        "details": "Gets the approved address for a token ID, or zero if no address set",
        "params": {
          "_tokenId": "uint256 ID of the token to query the approval of"
        },
        "return": "address currently approved for the given token ID"
      },
      "getRole(address)": {
        "details": "function to return role of entity based on address",
        "params": {
          "entity": "address of entity who's role is to be returned"
        },
        "return": "returns role of entity"
      },
      "get_all_sellable_token()": {
        "details": "function which returns array denoting availability of all Flowertokens",
        "return": "array denoting availability of all Flowertokens"
      },
      "get_my_tokens()": {
        "details": "function which returns array denoting whether entity calling function is owner of each Flowertoken",
        "return": "array denoting ownership of each Flowertoken"
      },
      "get_shares()": {
        "details": "function to find the number of shares held by entity calling function",
        "return": "individual_shares returns uint of shares held by entity"
      },
      "get_token_data(uint256)": {
        "details": "function which returns the price and availability of specified Flowertoken",
        "params": {
          "_tokenId": "unique identification number of Flowertoken to be sold"
        },
        "return": "price and availability of specified Flowertoken"
      },
      "get_token_data_buyable(uint256)": {
        "details": "function which returns availability of specified Flowertoken",
        "params": {
          "_tokenId": "unique identification number of Flowertoken to be sold"
        },
        "return": "returns boolean denoting availability of specified Flowertoken"
      },
      "initialisation(address)": {
        "details": "function to set INFRASTRUCTURE_POOL_ADDRESS global var to address of deployed infrastructurePool contract",
        "params": {
          "_infrastructure_address": "address of deployed infrastructurePool contract"
        }
      },
      "isApprovedOrOwner(address,uint256)": {
        "details": "Returns whether the given spender can transfer a given token ID",
        "params": {
          "_spender": "address of the spender to query",
          "_tokenId": "uint256 ID of the token to be transferred"
        },
        "return": "bool whether the msg.sender is approved for the given token ID, is an operator of the owner, or is the owner of the token"
      },
      "oracle_call(uint256)": {
        "details": "function called by oracle to calculate the total shares for a given token",
        "params": {
          "unique_id": "id number of a token"
        }
      },
      "ownerOf(uint256)": {
        "details": "Gets the owner of the specified token ID",
        "params": {
          "_tokenId": "uint256 ID of the token to query the owner of"
        },
        "return": "owner address currently marked as the owner of the given token ID"
      },
      "setApprovalForAll(address,bool)": {
        "details": "Sets or unsets the approval of a given operatorAn operator is allowed to transfer all tokens of the sender on their behalf",
        "params": {
          "_approved": "representing the status of the approval to be set",
          "_to": "operator address to set the approval"
        }
      },
      "setRole(uint8,address)": {
        "details": "function to map address to certain role",
        "params": {
          "entity": "address to be mapped to particlar role",
          "rolevalue": "uint to set role as either USER, ORACLE, or ADMIN"
        }
      },
      "set_price_and_sell(uint256,uint256)": {
        "details": "function to set the price of a Flowertoken and also put it up for sale",
        "params": {
          "Price": "price Flowertoken is to be sold for",
          "UniqueID": "unique identification number of Flowertoken to be sold"
        }
      },
      "stop_sell(uint256)": {
        "details": "function to take Flowertoken which is for sale off the market",
        "params": {
          "UniqueID": "unique identification number of Flowertoken to be sold"
        }
      },
      "transferFrom(address,address,uint256)": {
        "details": "Transfers the ownership of a given token ID to another addressUsage of this method is discouraged, use `safeTransferFrom` whenever possibleRequires the msg sender to be the owner, approved, or operator",
        "params": {
          "_from": "current owner of the token",
          "_to": "address to receive the ownership of the given token ID",
          "_tokenId": "uint256 ID of the token to be transferred"
        }
      },
      "updatetoken(uint256,string)": {
        "details": "function to update the uri linked to a specified Flowertoken",
        "params": {
          "_tokenId": "unique identification number for specified Flowertoken",
          "new_uri": "new uri linking metadata to specified Flowertoken"
        }
      }
    }
  },
  "userdoc": {
    "methods": {}
  }
}