{
  "contractName": "Metadata",
  "abi": [
    {
      "inputs": [
        {
          "internalType": "uint256",
          "name": "_tokenId",
          "type": "uint256"
        }
      ],
      "name": "tokenURI",
      "outputs": [
        {
          "internalType": "string",
          "name": "_infoUrl",
          "type": "string"
        }
      ],
      "stateMutability": "pure",
      "type": "function"
    },
    {
      "inputs": [
        {
          "internalType": "uint256",
          "name": "x",
          "type": "uint256"
        }
      ],
      "name": "toBytes",
      "outputs": [
        {
          "internalType": "bytes",
          "name": "b",
          "type": "bytes"
        }
      ],
      "stateMutability": "pure",
      "type": "function"
    }
  ],
  "bytecode": "0x608060405234801561001057600080fd5b506105b1806100206000396000f3fe608060405234801561001057600080fd5b50600436106100365760003560e01c8063775a8f5e1461003b578063c87b56dd146100e2575b600080fd5b6100676004803603602081101561005157600080fd5b8101908080359060200190929190505050610189565b6040518080602001828103825283818151815260200191508051906020019080838360005b838110156100a757808201518184015260208101905061008c565b50505050905090810190601f1680156100d45780820380516001836020036101000a031916815260200191505b509250505060405180910390f35b61010e600480360360208110156100f857600080fd5b81019080803590602001909291905050506101e4565b6040518080602001828103825283818151815260200191508051906020019080838360005b8381101561014e578082015181840152602081019050610133565b50505050905090810190601f16801561017b5780820380516001836020036101000a031916815260200191505b509250505060405180910390f35b6060602067ffffffffffffffff811180156101a357600080fd5b506040519080825280601f01601f1916602001820160405280156101d65781602001600182028036833780820191505090505b509050816020820152919050565b6060806040518060800160405280604d815260200161052f604d91399050606061020d8461029e565b905060606040518060400160405280600581526020017f2e6a736f6e0000000000000000000000000000000000000000000000000000008152509050606061026e61025784610404565b61026086610404565b61043290919063ffffffff16565b905061029361027c83610404565b61028583610404565b61043290919063ffffffff16565b945050505050919050565b606060008214156102e6576040518060400160405280600181526020017f300000000000000000000000000000000000000000000000000000000000000081525090506103ff565b600082905060005b60008214610310578080600101915050600a828161030857fe5b0491506102ee565b60608167ffffffffffffffff8111801561032957600080fd5b506040519080825280601f01601f19166020018201604052801561035c5781602001600182028036833780820191505090505b50905060006001830390505b600086146103f7576000600a878161037c57fe5b06603001905061038b81610189565b601f8151811061039757fe5b602001015160f81c60f81b838380600190039450815181106103b557fe5b60200101907effffffffffffffffffffffffffffffffffffffffffffffffffffffffffffff1916908160001a905350600a87816103ee57fe5b04965050610368565b819450505050505b919050565b61040c610514565b600060208301905060405180604001604052808451815260200182815250915050919050565b606080826000015184600001510167ffffffffffffffff8111801561045657600080fd5b506040519080825280601f01601f1916602001820160405280156104895781602001600182028036833780820191505090505b50905060006020820190506104a781866020015187600001516104cb565b6104c085600001518201856020015186600001516104cb565b819250505092915050565b5b602081106104ef57815183526020830192506020820191506020810390506104cc565b60006001826020036101000a0390508019835116818551168181178652505050505050565b60405180604001604052806000815260200160008152509056fe68747470733a2f2f636572742d7465737465722e636c75622f697066732f516d4e5468466f4563416e6a5569754a6f5373356771387852697163744e533564666a434657756855534b4a34762fa26469706673582212202b9c9cbe45f6313650f7e97c6464c0889e9c786c654c4433bdd15ee107cc06b764736f6c63430006080033",
  "immutableReferences": {},
  "source": "pragma solidity ^0.6.8;\n\n/**\n* Metadata contract is upgradeable and returns metadata about Token\n*/\n\nimport \"./helpers/strings.sol\";\n\ncontract Metadata {\n    using strings for *;\n\n    function tokenURI(uint _tokenId) public pure returns (string memory _infoUrl) {\n        string memory base = \"https://cert-tester.club/ipfs/QmNThFoEcAnjUiuJoSs5gq8xRiqctNS5dfjCFWuhUSKJ4v/\";\n        string memory id = uint2str(_tokenId);\n        string memory file = \".json\";\n        string memory firstpart = base.toSlice().concat(id.toSlice());\n        return firstpart.toSlice().concat(file.toSlice());\n    }\n\n    function uint2str(uint i) internal pure returns (string memory) {\n        if (i == 0) return \"0\";\n        uint j = i;\n        uint length;\n        while (j != 0) {\n            length++;\n            j /= 10;\n        }\n        bytes memory bstr = new bytes(length);\n        uint k = length - 1;\n        while (i != 0) {\n            uint _uint = 48 + i % 10;\n            bstr[k--] = toBytes(_uint)[31];\n            i /= 10;\n        }\n        return string(bstr);\n    }\n    function toBytes(uint256 x) public pure returns (bytes memory b) {\n        b = new bytes(32);\n        assembly { mstore(add(b, 32), x) }\n    }\n}\n",
  "sourcePath": "/home/mx/dev/terra/flowerTokens/contracts/Metadata.sol",
  "compiler": {
    "name": "solc",
    "version": "0.6.8+commit.0bbfe453.Emscripten.clang"
  },
  "schemaVersion": "3.4.3",
  "updatedAt": "2021-08-16T18:11:39.020Z",
  "devdoc": {
    "methods": {}
  },
  "userdoc": {
    "methods": {}
  }
}